:100000000C9463000C948B000C948B000C940604ED
:100010000C9406040C9406040C948B000C948B0036
:100020000C948B000C948B000C948B000C948B0024
:100030000C948B000C948B000C948B000C948B0014
:100040000C94BC030C948B000C948A030C946403F2
:100050000C948B000C948B000C948B000C948B00F4
:100060000C948B000C948B0000000008000201002F
:100070000003040700000000000000000000000072
:10008000250028002B0000000000240027002A0083
:1000900000000000230026002900040404040404D6
:1000A0000404020202020202030303030303010227
:1000B00004081020408001020408102001020408F6
:1000C000102080044C0711241FBECFEFD8E0DEBF04
:1000D000CDBF22E0AAE4B1E001C01D92AD35B20768
:1000E000E1F711E0A0E0B1E0E8EFF3E102C0059034
:1000F0000D92AA34B107D9F710E0C2E6D0E004C0EF
:100100002197FE010E94DD07C136D107C9F70E9481
:1001100075050C94EF090C940000CF92DF92EF92DA
:10012000FF920F931F93CF93DF936C017A018B01A2
:10013000C0E0D0E0CE15DF0589F0D8016D918D01CA
:10014000D601ED91FC910190F081E02DC601099559
:10015000892B11F47E0102C02196ECCFC701DF91FB
:10016000CF911F910F91FF90EF90DF90CF90089566
:10017000FC01538D448D252F30E0842F90E0821BAD
:10018000930B541710F0CF96089501970895FC0132
:10019000918D828D981761F0828DDF01A80FB11DBE
:1001A0005D968C91928D9F5F9F73928F90E00895E2
:1001B0008FEF9FEF0895FC01918D828D981731F09C
:1001C000828DE80FF11D858D90E008958FEF9FEFF0
:1001D0000895FC01918D228D892F90E0805C9F4FC6
:1001E000821B91098F739927089587E991E00E94F6
:1001F000E90021E0892B09F420E0822F0895FC0119
:10020000848DDF01A80FB11DA35ABF4F2C91848D9F
:1002100090E001968F739927848FA689B7892C93D4
:10022000A089B1898C9180648C93938D848D98136F
:1002300006C00288F389E02D80818F7D8083089538
:10024000EF92FF920F931F93CF93DF93EC0181E026
:10025000888F9B8D8C8D981305C0E889F9898081E2
:1002600085FD24C0F62E0B8D10E00F5F1F4F0F731E
:100270001127E02E8C8DE8120CC00FB607FCFACFC8
:10028000E889F989808185FFF5CFCE010E94FF00C2
:10029000F1CF8B8DFE01E80FF11DE35AFF4FF08285
:1002A0000B8FEA89FB898081806207C0EE89FF8914
:1002B0006083E889F98980818064808381E090E0AF
:1002C000DF91CF911F910F91FF90EF900895CF9301
:1002D000DF93EC01888D8823C9F0EA89FB8980814E
:1002E00085FD05C0A889B9898C9186FD0FC00FB620
:1002F00007FCF5CF808185FFF2CFA889B9898C9161
:1003000085FFEDCFCE010E94FF00E7CFDF91CF91B7
:10031000089580E090E0892B29F00E94F50081117A
:100320000C940000089590E0FC01E859FF4F3491CF
:10033000FC01E255FF4F2491FC01E656FF4FE4918A
:10034000EE2309F43BC0332339F1333091F038F414
:100350003130A9F0323001F584B58F7D12C03730CD
:1003600091F03830A1F03430B9F4809180008F7D65
:1003700003C0809180008F77809380000DC084B58A
:100380008F7784BD09C08091B0008F7703C08091C2
:10039000B0008F7D8093B000F0E0EE0FFF1FE458B7
:1003A000FF4FA591B4918FB7F894EC91611103C000
:1003B00020952E2301C02E2B2C938FBF08953FB77D
:1003C000F89480918F0190919001A0919101B0914A
:1003D000920126B5A89B05C02F3F19F00196A11DDB
:1003E000B11D3FBFBA2FA92F982F8827820F911DCB
:1003F000A11DB11DBC01CD0142E0660F771F881F12
:10040000991F4A95D1F708958F929F92AF92BF920C
:10041000CF92DF92EF92FF920E94DF014B015C01CD
:100420008AE0C82ED12CE12CF12C0E94DF01DC01E6
:10043000CB0188199909AA09BB09883E9340A105F7
:10044000B10558F021E0C21AD108E108F10888EEA0
:10045000880E83E0981EA11CB11CC114D104E104D4
:10046000F10419F7FF90EF90DF90CF90BF90AF901D
:100470009F908F90089520919501309196012817B3
:10048000390771F49091930180919401981741F08C
:10049000E0919301F0E0E65BFE4F808190E00895EB
:1004A0008FEF9FEF089508951F93CF93DF93DC01A3
:1004B0005C962D913C915D972115310539F481E0D1
:1004C00090E013969C938E9312973DC05196ED91B8
:1004D000FC91529750969C915097892F80951FB709
:1004E0005E964C915E9741FB772770F941FD6095D0
:1004F000F8944081772311F0492B01C048234083B1
:10050000E9012197F1F748E0508160FF02C0592BC3
:1005100001C058235083E9012197F1F766954150B6
:1005200099F7772321F090818923808303C080810C
:10053000982B90831FBF5C968D919C915D9701973E
:10054000F1F721E030E0C901DF91CF911F910895CB
:1005500020919501309196012817390771F4809107
:1005600094012091930190E0805C9F4F821B910940
:1005700060E470E00E949307089580E090E00895A1
:10058000209195013091960128173907B9F490917F
:10059000930180919401981789F0E0919301F0E024
:1005A000E65BFE4F80812091930130E02F5F3F4F4B
:1005B0002F7333272093930190E008958FEF9FEFDF
:1005C0000895E0919501F0919601E817F90769F413
:1005D000A389B4899C918589809589238C931092F5
:1005E00096011092950181E0089580E008950895A4
:1005F00080E090E008956115710579F0FB010190AC
:100600000020E9F73197AF01461B570BDC01ED9154
:10061000FC910280F381E02D099480E090E0089540
:100620000E94DA090F931F93CF93DF93EC01888127
:100630009981009729F02A813B812617370788F492
:100640008B016F5F7F4F0E941009009761F09983C3
:1006500088831B830A832C813D81232B11F4FC01A9
:10066000108281E001C080E0DF91CF911F910F9156
:100670000895EF92FF920F931F93CF93DF93EC01B6
:100680007B018A01BA010E941203288139818111FC
:100690000DC02115310519F0C9010E947808198291
:1006A00018821D821C821B821A8206C01D830C8345
:1006B000B701C9010E94E809CE01DF91CF911F91D6
:1006C0000F91FF90EF9008951F920F920FB60F9227
:1006D00011242F933F934F935F936F937F938F9347
:1006E0009F93AF93BF93EF93FF9387E991E00E94AD
:1006F000FF00FF91EF91BF91AF919F918F917F91FB
:100700006F915F914F913F912F910F900FBE0F907E
:100710001F9018951F920F920FB60F9211242F93CE
:100720008F939F93EF93FF93E091A701F091A8011E
:100730008081E091AD01F091AE0182FD12C0908107
:100740008091B0018F5F8F732091B101821751F0BA
:10075000E091B001F0E0E956FE4F958F8093B00133
:1007600001C08081FF91EF919F918F912F910F9008
:100770000FBE0F901F9018951F920F920FB60F92F9
:1007800011242F933F938F939F93AF93BF938091A7
:100790008B0190918C01A0918D01B0918E013091CF
:1007A0008A0123E0230F2D3720F40196A11DB11DEE
:1007B00005C026E8230F0296A11DB11D20938A01D2
:1007C00080938B0190938C01A0938D01B0938E0147
:1007D00080918F0190919001A0919101B09192012F
:1007E0000196A11DB11D80938F0190939001A0935C
:1007F0009101B0939201BF91AF919F918F913F91E1
:100800002F910F900FBE0F901F9018951F920F926F
:100810000FB60F9211242F933F934F935F936F93D3
:100820007F938F939F93AF93BF93EF93FF93E09149
:100830009501F0919601309709F451C0968DA685E7
:10084000B785858591FF04C09C91892329F447C011
:100850009C91892309F043C0A389B4899C9185891F
:10086000809589238C93868997890197F1F7608D0C
:10087000718DA685B785558538E020E0CB010197BD
:10088000F1F7822F90E095958795282F4C9145237D
:1008900009F02068315091F7868D81FD2095809177
:1008A000940190E001968F73992730919301381746
:1008B00049F0A0919401B0E0A65BBE4F2C938093C9
:1008C000940103C0868D8160868F828D938D019700
:1008D000F1F7A389B4899C918589892B8C93FF9129
:1008E000EF91BF91AF919F918F917F916F915F91A8
:1008F0004F913F912F910F900FBE0F901F90189521
:10090000CF93DF9310929A011092990188EE93E0B1
:10091000A0E0B0E080939B0190939C01A0939D0187
:10092000B0939E012AE031E0309398012093970123
:1009300025EC30E03093A4012093A30124EC30E0B7
:100940003093A6012093A50120EC30E03093A8015C
:100950002093A70121EC30E03093AA012093A90154
:1009600022EC30E03093AC012093AB0126EC30E078
:100970003093AE012093AD011092B0011092B101FD
:100980001092B2011092B30110923D0210923C02FB
:1009900080933E0290933F02A0934002B0934102A5
:1009A0008CE191E090933B0280933A0210925102C5
:1009B000109250021092530210925202109255025D
:1009C00010925402109257021092560260915802EF
:1009D0006E7F6D7F609358026695617081E0682735
:1009E0008BE00E949301E9EBF0E02491E5EAF0E06E
:1009F0008491882399F090E0880F991FFC01EA57B1
:100A0000FF4FA591B491FC01E458FF4F859194915B
:100A10008FB7F894EC91E22BEC938FBFE9EBF0E009
:100A2000E491E0934A02E5EAF0E0E491F0E0EE0FB1
:100A3000FF1FE458FF4F8591949190934C0280934F
:100A40004B02E8EBF0E02491E4EAF0E084918823A3
:100A5000C1F090E0880F991FFC01EA57FF4FC59144
:100A6000D491FC01E458FF4FA591B4919FB7F8943D
:100A70008881E22FE0958E2388838C91E823EC9384
:100A80009FBF8091580281FD04C061E08AE00E940E
:100A900093018AE080934602E8EBF0E0E491E09372
:100AA0004702E4EAF0E0E491F0E0EE0FFF1FE057C8
:100AB000FF4F859194919093490280934802109240
:100AC00035021092340210923702109236021092C0
:100AD00039021092380240E050E069E471E084E3AA
:100AE00092E0DF91CF910C943903CF93DF93CDB790
:100AF000DEB7A1970FB6F894DEBF0FBECDBF7894D6
:100B000084B5826084BD84B5816084BD85B5826012
:100B100085BD85B5816085BD80916E0081608093C3
:100B20006E0010928100809181008260809381002C
:100B3000809181008160809381008091800081603C
:100B4000809380008091B10084608093B100809197
:100B5000B00081608093B00080917A0084608093BF
:100B60007A0080917A00826080937A0080917A0086
:100B7000816080937A0080917A00806880937A0007
:100B80001092C100E091A701F091A80182E080835A
:100B9000E091A301F091A4011082E091A501F091F0
:100BA000A6018FEC80831092AF01E091AB01F09130
:100BB000AC0186E08083E091A901F091AA018081D7
:100BC00080618083E091A901F091AA018081886011
:100BD0008083E091A901F091AA01808180688083DF
:100BE000E091A901F091AA0180818F7D808310920C
:100BF0005502109254021092530210925202109217
:100C00005102109250028DE991E090935702809327
:100C1000560290914602963108F057C02DEB30E015
:100C200030935102209350022BE931E0309353026C
:100C3000209352022CE231E030935502209354026B
:100C400020916800983050F031E09E3008F430E098
:100C500081E001C0880F3A95EAF701C084E0822B59
:100C600080936800983038F09E3040F0963148F01C
:100C700020E030E008C02DE630E005C02BE630E093
:100C800002C02CE630E030934E0220934D029830A3
:100C900030F481E001C0880F9A95EAF70EC0292F41
:100CA00030E09E3018F42850310902C02E5031092E
:100CB00081E001C0880F2A95EAF780934F02809166
:100CC0005602909157020197F1F78091540290914A
:100CD0005502892B21F1809195019091960122E096
:100CE0008A339207E1F0009711F00E94E1028091AF
:100CF00058028E7F809358021092940110929301B3
:100D00008AE392E09093960180939501E0914D02E1
:100D1000F0914E02908180914F02892B80836AE28C
:100D200071E087E991E00E94FB0267E471E087E9E6
:100D300091E00E94FB028AE0882E912CA12CB12C1C
:100D40008AE392E00E94A802892B09F449C08AE351
:100D500092E00E94A802892B49F10E9404028AE3D2
:100D600092E00E94C00289831A8200913802109199
:100D700039020F5F1F4FB80184E392E00E94120313
:100D8000882329F320913402309135028091380272
:100D900090913902BE016F5F7F4F820F931F0E94B7
:100DA000E8091093390200933802D1CF40913802FC
:100DB00050913902609134027091350287E991E0D7
:100DC0000E948D0067E471E087E991E00E94FB02D8
:100DD00040E050E069E471E084E392E00E9439036E
:100DE00087E991E00E94E900892B09F452C00E9432
:100DF000040287E991E00E94C7006C01990FEE0898
:100E0000FF08F7FE26C0E0913A02F0913B02019004
:100E1000F081E02D6DE28AE392E0099522273327E5
:100E2000A9012C193D094E095F0919A28E010F5D18
:100E30001F4FCA01B901A50194010E94A707605D77
:100E4000F80162938F01211531054105510589F79C
:100E500015C0A701960119A28E010F5D1F4FCA018F
:100E6000B901A50194010E94A707605DF801629392
:100E70008F01211531054105510589F7B8018AE334
:100E800092E00E94FB0267E471E08AE392E00E9434
:100E9000FB020E94890154CF809134029091350267
:100EA0000E9478088CE191E090933B0280933A0293
:100EB0008AE392E00C94E1022F923F924F925F926C
:100EC0006F927F928F929F92AF92BF92CF92DF925A
:100ED000EF92FF920F931F93CF93DF93CDB7DEB7BF
:100EE000CA1BDB0B0FB6F894DEBF0FBECDBF099453
:100EF0002A88398848885F846E847D848C849B84AA
:100F0000AA84B984C884DF80EE80FD800C811B81B7
:100F1000AA81B981CE0FD11D0FB6F894DEBF0FBEE6
:100F2000CDBFED01089597FB072E16F4009407D06E
:100F300077FD09D00E94C90707FC05D03EF49095C3
:100F400081959F4F0895709561957F4F0895A1E217
:100F50001A2EAA1BBB1BFD010DC0AA1FBB1FEE1F33
:100F6000FF1FA217B307E407F50720F0A21BB30B7E
:100F7000E40BF50B661F771F881F991F1A9469F7FA
:100F800060957095809590959B01AC01BD01CF0156
:100F90000895AA1BBB1B51E107C0AA1FBB1FA617C0
:100FA000B70710F0A61BB70B881F991F5A95A9F712
:100FB00080959095BC01CD010895EE0FFF1F05901F
:100FC000F491E02D0994CF93DF938230910510F4D2
:100FD00082E090E0E0915B02F0915C0220E030E082
:100FE000C0E0D0E0309711F1408151814817590796
:100FF000C0F04817590761F482819381209719F056
:101000009B838A832BC090935C0280935B0226C0F3
:101010002115310519F04217530718F49A01BE0142
:10102000DF01EF010280F381E02DDCCF21153105D6
:1010300009F1281B390B2430310590F412968D915B
:101040009C9113976115710521F0FB0193838283B5
:1010500004C090935C0280935B02FD01329644C011
:10106000FD01E20FF31F81939193225031092D93DB
:101070003C933AC02091590230915A02232B41F4FB
:10108000209102013091030130935A0220935902BA
:1010900020910001309101012115310541F42DB756
:1010A0003EB74091040150910501241B350BE0919E
:1010B0005902F0915A02E217F307A0F42E1B3F0BDE
:1010C0002817390778F0AC014E5F5F4F24173507BA
:1010D00048F04E0F5F1F50935A024093590281937C
:1010E000919302C0E0E0F0E0CF01DF91CF9108954D
:1010F0000F931F93CF93DF93009709F48CC0FC01EB
:1011000032971382128200915B0210915C020115EA
:10111000110581F420813181820F931F20915902A2
:1011200030915A022817390779F5F0935A02E09363
:10113000590271C0D80140E050E0AE17BF0750F42B
:1011400012962D913C911397AD012115310509F1AE
:10115000D901F3CF9D01DA0133832283608171814C
:10116000860F971F8217930769F4EC012881398154
:10117000260F371F2E5F3F4F318320838A819B814B
:1011800093838283452B29F4F0935C02E0935B0206
:1011900042C01396FC93EE931297ED014991599139
:1011A0009E01240F351FE217F30771F480819181AE
:1011B000840F951F029611969C938E938281938142
:1011C00013969C938E931297E0E0F0E0D80112966C
:1011D0008D919C911397009719F0F8018C01F6CF2F
:1011E0008D919C9198012E5F3F4F820F931F20910C
:1011F000590230915A022817390769F4309729F4B7
:1012000010925C0210925B0202C013821282109351
:101210005A0200935902DF91CF911F910F910895C7
:10122000A0E0B0E0E6E1F9E00C946007EC01009783
:1012300021F4CB010E94E307B8C0FC01E60FF71FC1
:101240009C0122503109E217F30708F4ACC0D90120
:101250000D911C91119706171707B0F00530110575
:1012600008F49FC0C80104978617970708F499C02F
:1012700002501109061B170B019311936D937C9378
:10128000CF010E9478088DC05B01A01AB10A4C0101
:10129000800E911EA0915B02B0915C0240E050E094
:1012A000E12CF12C109709F44AC0A815B905D1F525
:1012B0006D907C901197630182E0C80ED11CCA1416
:1012C000DB0480F1A3014A195B096A0182E0C80EC0
:1012D000D11C1296BC9012971396AC91B5E0CB1628
:1012E000D10440F0B282A38351834083D9016D932E
:1012F0007C930AC00E5F1F4FC301800F911FF9013D
:1013000091838083EB2DFA2FE114F10431F0D701A2
:101310001396FC93EE93129744C0F0935C02E09313
:101320005B023FC08D919C9111974817590708F4B3
:10133000AC017D0112960D90BC91A02DB3CF809190
:10134000590290915A0288159905E1F446175707FA
:10135000C8F48091000190910101009741F48DB78C
:101360009EB74091040150910501841B950BE8172D
:10137000F907C8F4F0935A02E0935902F901718316
:1013800060830FC0CB010E94E3077C01009759F0F6
:10139000A801BE010E94DF09CE010E947808C701A2
:1013A00004C0CE0102C080E090E0CDB7DEB7EEE031
:1013B0000C947C0781E090E0F8940C94EF09FB0119
:1013C000DC0102C001900D9241505040D8F70895C1
:1013D000FB01DC0101900D920020E1F7089510E07F
:1013E000C2E6D0E004C0FE010E94DD072196C336AC
:0813F000D107C9F7F894FFCF03
:1013F80000005D0280000000000020018D00B800A0
:101408006701E900C700DB000000000054028D00FE
:10141800F8025302A802C0023B0241524440554E12
:1014280049584C494B453A7E4465762F426C756560
:0A143800746F6F746823000D0A0042
:00000001FF
